{
  "_format": "hh-sol-artifact-1",
  "contractName": "TheCyberNFT",
  "sourceName": "contracts/TheCyberNFT.sol",
  "abi": [
    {
      "inputs": [],
      "stateMutability": "nonpayable",
      "type": "constructor"
    },
    {
      "anonymous": false,
      "inputs": [
        {
          "indexed": true,
          "internalType": "address",
          "name": "owner",
          "type": "address"
        },
        {
          "indexed": true,
          "internalType": "address",
          "name": "approved",
          "type": "address"
        },
        {
          "indexed": true,
          "internalType": "uint256",
          "name": "tokenId",
          "type": "uint256"
        }
      ],
      "name": "Approval",
      "type": "event"
    },
    {
      "anonymous": false,
      "inputs": [
        {
          "indexed": true,
          "internalType": "address",
          "name": "owner",
          "type": "address"
        },
        {
          "indexed": true,
          "internalType": "address",
          "name": "operator",
          "type": "address"
        },
        {
          "indexed": false,
          "internalType": "bool",
          "name": "approved",
          "type": "bool"
        }
      ],
      "name": "ApprovalForAll",
      "type": "event"
    },
    {
      "anonymous": false,
      "inputs": [
        {
          "indexed": false,
          "internalType": "address",
          "name": "sender",
          "type": "address"
        },
        {
          "indexed": false,
          "internalType": "uint256",
          "name": "tokenId",
          "type": "uint256"
        }
      ],
      "name": "NewCyberNFTMinted",
      "type": "event"
    },
    {
      "anonymous": false,
      "inputs": [
        {
          "indexed": true,
          "internalType": "address",
          "name": "from",
          "type": "address"
        },
        {
          "indexed": true,
          "internalType": "address",
          "name": "to",
          "type": "address"
        },
        {
          "indexed": true,
          "internalType": "uint256",
          "name": "tokenId",
          "type": "uint256"
        }
      ],
      "name": "Transfer",
      "type": "event"
    },
    {
      "inputs": [
        {
          "internalType": "address",
          "name": "to",
          "type": "address"
        },
        {
          "internalType": "uint256",
          "name": "tokenId",
          "type": "uint256"
        }
      ],
      "name": "approve",
      "outputs": [],
      "stateMutability": "nonpayable",
      "type": "function"
    },
    {
      "inputs": [
        {
          "internalType": "address",
          "name": "owner",
          "type": "address"
        }
      ],
      "name": "balanceOf",
      "outputs": [
        {
          "internalType": "uint256",
          "name": "",
          "type": "uint256"
        }
      ],
      "stateMutability": "view",
      "type": "function"
    },
    {
      "inputs": [
        {
          "internalType": "uint256",
          "name": "tokenId",
          "type": "uint256"
        }
      ],
      "name": "getApproved",
      "outputs": [
        {
          "internalType": "address",
          "name": "",
          "type": "address"
        }
      ],
      "stateMutability": "view",
      "type": "function"
    },
    {
      "inputs": [
        {
          "internalType": "address",
          "name": "owner",
          "type": "address"
        },
        {
          "internalType": "address",
          "name": "operator",
          "type": "address"
        }
      ],
      "name": "isApprovedForAll",
      "outputs": [
        {
          "internalType": "bool",
          "name": "",
          "type": "bool"
        }
      ],
      "stateMutability": "view",
      "type": "function"
    },
    {
      "inputs": [],
      "name": "makeACyberNFT",
      "outputs": [],
      "stateMutability": "nonpayable",
      "type": "function"
    },
    {
      "inputs": [],
      "name": "name",
      "outputs": [
        {
          "internalType": "string",
          "name": "",
          "type": "string"
        }
      ],
      "stateMutability": "view",
      "type": "function"
    },
    {
      "inputs": [
        {
          "internalType": "uint256",
          "name": "tokenId",
          "type": "uint256"
        }
      ],
      "name": "ownerOf",
      "outputs": [
        {
          "internalType": "address",
          "name": "",
          "type": "address"
        }
      ],
      "stateMutability": "view",
      "type": "function"
    },
    {
      "inputs": [
        {
          "internalType": "uint256",
          "name": "tokenId",
          "type": "uint256"
        }
      ],
      "name": "pickRandomFirstWord",
      "outputs": [
        {
          "internalType": "string",
          "name": "",
          "type": "string"
        }
      ],
      "stateMutability": "view",
      "type": "function"
    },
    {
      "inputs": [
        {
          "internalType": "uint256",
          "name": "tokenId",
          "type": "uint256"
        }
      ],
      "name": "pickRandomSecondWord",
      "outputs": [
        {
          "internalType": "string",
          "name": "",
          "type": "string"
        }
      ],
      "stateMutability": "view",
      "type": "function"
    },
    {
      "inputs": [
        {
          "internalType": "uint256",
          "name": "tokenId",
          "type": "uint256"
        }
      ],
      "name": "pickRandomThirdWord",
      "outputs": [
        {
          "internalType": "string",
          "name": "",
          "type": "string"
        }
      ],
      "stateMutability": "view",
      "type": "function"
    },
    {
      "inputs": [
        {
          "internalType": "address",
          "name": "from",
          "type": "address"
        },
        {
          "internalType": "address",
          "name": "to",
          "type": "address"
        },
        {
          "internalType": "uint256",
          "name": "tokenId",
          "type": "uint256"
        }
      ],
      "name": "safeTransferFrom",
      "outputs": [],
      "stateMutability": "nonpayable",
      "type": "function"
    },
    {
      "inputs": [
        {
          "internalType": "address",
          "name": "from",
          "type": "address"
        },
        {
          "internalType": "address",
          "name": "to",
          "type": "address"
        },
        {
          "internalType": "uint256",
          "name": "tokenId",
          "type": "uint256"
        },
        {
          "internalType": "bytes",
          "name": "data",
          "type": "bytes"
        }
      ],
      "name": "safeTransferFrom",
      "outputs": [],
      "stateMutability": "nonpayable",
      "type": "function"
    },
    {
      "inputs": [
        {
          "internalType": "address",
          "name": "operator",
          "type": "address"
        },
        {
          "internalType": "bool",
          "name": "approved",
          "type": "bool"
        }
      ],
      "name": "setApprovalForAll",
      "outputs": [],
      "stateMutability": "nonpayable",
      "type": "function"
    },
    {
      "inputs": [
        {
          "internalType": "bytes4",
          "name": "interfaceId",
          "type": "bytes4"
        }
      ],
      "name": "supportsInterface",
      "outputs": [
        {
          "internalType": "bool",
          "name": "",
          "type": "bool"
        }
      ],
      "stateMutability": "view",
      "type": "function"
    },
    {
      "inputs": [],
      "name": "symbol",
      "outputs": [
        {
          "internalType": "string",
          "name": "",
          "type": "string"
        }
      ],
      "stateMutability": "view",
      "type": "function"
    },
    {
      "inputs": [
        {
          "internalType": "uint256",
          "name": "tokenId",
          "type": "uint256"
        }
      ],
      "name": "tokenURI",
      "outputs": [
        {
          "internalType": "string",
          "name": "",
          "type": "string"
        }
      ],
      "stateMutability": "view",
      "type": "function"
    },
    {
      "inputs": [
        {
          "internalType": "address",
          "name": "from",
          "type": "address"
        },
        {
          "internalType": "address",
          "name": "to",
          "type": "address"
        },
        {
          "internalType": "uint256",
          "name": "tokenId",
          "type": "uint256"
        }
      ],
      "name": "transferFrom",
      "outputs": [],
      "stateMutability": "nonpayable",
      "type": "function"
    }
  ],
  "bytecode": "0x608060405260405180610160016040528061012f81526020016200460761012f913960089081620000319190620009d0565b506040518060c001604052806040518060400160405280600581526020017f4c6963687400000000000000000000000000000000000000000000000000000081525081526020016040518060400160405280600781526020017f54616e6a69726f0000000000000000000000000000000000000000000000000081525081526020016040518060400160405280600681526020017f4e617275746f000000000000000000000000000000000000000000000000000081525081526020016040518060400160405280600881526020017f4d656c6f6469617300000000000000000000000000000000000000000000000081525081526020016040518060400160405280600481526020017f417374610000000000000000000000000000000000000000000000000000000081525081526020016040518060400160405280600681526020017f5361746f727500000000000000000000000000000000000000000000000000008152508152506009906006620001af92919062000669565b506040518060c001604052806040518060400160405280600581526020017f53776f726400000000000000000000000000000000000000000000000000000081525081526020016040518060400160405280600381526020017f47756e000000000000000000000000000000000000000000000000000000000081525081526020016040518060400160405280600581526020017f536162657200000000000000000000000000000000000000000000000000000081525081526020016040518060400160405280600581526020017f537065617200000000000000000000000000000000000000000000000000000081525081526020016040518060400160405280600581526020017f4172726f7700000000000000000000000000000000000000000000000000000081525081526020016040518060400160405280600581526020017f4b6e696665000000000000000000000000000000000000000000000000000000815250815250600a9060066200032d92919062000669565b506040518060c001604052806040518060400160405280600581526020017f48756d616e00000000000000000000000000000000000000000000000000000081525081526020016040518060400160405280600581526020017f44656d6f6e00000000000000000000000000000000000000000000000000000081525081526020016040518060400160405280600581526020017f456c76657300000000000000000000000000000000000000000000000000000081525081526020016040518060400160405280600a81526020017f44656d6f6e737061776e0000000000000000000000000000000000000000000081525081526020016040518060400160405280600481526020017f4f7263730000000000000000000000000000000000000000000000000000000081525081526020016040518060400160405280600b81526020017f5361637265644f72646572000000000000000000000000000000000000000000815250815250600b906006620004ab92919062000669565b50348015620004b957600080fd5b506040518060400160405280600a81526020017f416e696d654c6f766572000000000000000000000000000000000000000000008152506040518060400160405280600281526020017f414c0000000000000000000000000000000000000000000000000000000000008152508160009081620005379190620009d0565b508060019081620005499190620009d0565b505050620005976040518060400160405280601081526020017f4e6577204e465420436f6e7472616374000000000000000000000000000000008152506200059d60201b62000fbe1760201c565b62000b6a565b6200063d81604051602401620005b4919062000b46565b6040516020818303038152906040527f41304fac000000000000000000000000000000000000000000000000000000007bffffffffffffffffffffffffffffffffffffffffffffffffffffffff19166020820180517bffffffffffffffffffffffffffffffffffffffffffffffffffffffff83818316178352505050506200064060201b60201c565b50565b60008151905060006a636f6e736f6c652e6c6f679050602083016000808483855afa5050505050565b828054828255906000526020600020908101928215620006b6579160200282015b82811115620006b5578251829081620006a49190620009d0565b50916020019190600101906200068a565b5b509050620006c59190620006c9565b5090565b5b80821115620006ed5760008181620006e39190620006f1565b50600101620006ca565b5090565b508054620006ff90620007bf565b6000825580601f1062000713575062000734565b601f01602090049060005260206000209081019062000733919062000737565b5b50565b5b808211156200075257600081600090555060010162000738565b5090565b600081519050919050565b7f4e487b7100000000000000000000000000000000000000000000000000000000600052604160045260246000fd5b7f4e487b7100000000000000000000000000000000000000000000000000000000600052602260045260246000fd5b60006002820490506001821680620007d857607f821691505b602082108103620007ee57620007ed62000790565b5b50919050565b60008190508160005260206000209050919050565b60006020601f8301049050919050565b600082821b905092915050565b600060088302620008587fffffffffffffffffffffffffffffffffffffffffffffffffffffffffffffffff8262000819565b62000864868362000819565b95508019841693508086168417925050509392505050565b6000819050919050565b6000819050919050565b6000620008b1620008ab620008a5846200087c565b62000886565b6200087c565b9050919050565b6000819050919050565b620008cd8362000890565b620008e5620008dc82620008b8565b84845462000826565b825550505050565b600090565b620008fc620008ed565b62000909818484620008c2565b505050565b5b81811015620009315762000925600082620008f2565b6001810190506200090f565b5050565b601f82111562000980576200094a81620007f4565b620009558462000809565b8101602085101562000965578190505b6200097d620009748562000809565b8301826200090e565b50505b505050565b600082821c905092915050565b6000620009a56000198460080262000985565b1980831691505092915050565b6000620009c0838362000992565b9150826002028217905092915050565b620009db8262000756565b67ffffffffffffffff811115620009f757620009f662000761565b5b62000a038254620007bf565b62000a1082828562000935565b600060209050601f83116001811462000a48576000841562000a33578287015190505b62000a3f8582620009b2565b86555062000aaf565b601f19841662000a5886620007f4565b60005b8281101562000a825784890151825560018201915060208501945060208101905062000a5b565b8683101562000aa2578489015162000a9e601f89168262000992565b8355505b6001600288020188555050505b505050505050565b600082825260208201905092915050565b60005b8381101562000ae857808201518184015260208101905062000acb565b60008484015250505050565b6000601f19601f8301169050919050565b600062000b128262000756565b62000b1e818562000ab7565b935062000b3081856020860162000ac8565b62000b3b8162000af4565b840191505092915050565b6000602082019050818103600083015262000b62818462000b05565b905092915050565b613a8d8062000b7a6000396000f3fe608060405234801561001057600080fd5b506004361061010b5760003560e01c80636352211e116100a2578063b187301f11610071578063b187301f146102b6578063b88d4fde146102e6578063c575757a14610302578063c87b56dd14610332578063e985e9c5146103625761010b565b80636352211e1461021c57806370a082311461024c57806395d89b411461027c578063a22cb4651461029a5761010b565b806323b872dd116100de57806323b872dd146101aa5780632de38d68146101c657806340842364146101f657806342842e0e146102005761010b565b806301ffc9a71461011057806306fdde0314610140578063081812fc1461015e578063095ea7b31461018e575b600080fd5b61012a6004803603810190610125919061233c565b610392565b6040516101379190612384565b60405180910390f35b610148610474565b604051610155919061242f565b60405180910390f35b61017860048036038101906101739190612487565b610506565b60405161018591906124f5565b60405180910390f35b6101a860048036038101906101a3919061253c565b61054c565b005b6101c460048036038101906101bf919061257c565b610663565b005b6101e060048036038101906101db9190612487565b6106c3565b6040516101ed919061242f565b60405180910390f35b6101fe6107bb565b005b61021a6004803603810190610215919061257c565b6109c1565b005b61023660048036038101906102319190612487565b6109e1565b60405161024391906124f5565b60405180910390f35b610266600480360381019061026191906125cf565b610a67565b604051610273919061260b565b60405180910390f35b610284610b1e565b604051610291919061242f565b60405180910390f35b6102b460048036038101906102af9190612652565b610bb0565b005b6102d060048036038101906102cb9190612487565b610bc6565b6040516102dd919061242f565b60405180910390f35b61030060048036038101906102fb91906127c7565b610cbe565b005b61031c60048036038101906103179190612487565b610d20565b604051610329919061242f565b60405180910390f35b61034c60048036038101906103479190612487565b610e18565b604051610359919061242f565b60405180910390f35b61037c6004803603810190610377919061284a565b610f2a565b6040516103899190612384565b60405180910390f35b60007f80ac58cd000000000000000000000000000000000000000000000000000000007bffffffffffffffffffffffffffffffffffffffffffffffffffffffff1916827bffffffffffffffffffffffffffffffffffffffffffffffffffffffff1916148061045d57507f5b5e139f000000000000000000000000000000000000000000000000000000007bffffffffffffffffffffffffffffffffffffffffffffffffffffffff1916827bffffffffffffffffffffffffffffffffffffffffffffffffffffffff1916145b8061046d575061046c82611057565b5b9050919050565b606060008054610483906128b9565b80601f01602080910402602001604051908101604052809291908181526020018280546104af906128b9565b80156104fc5780601f106104d1576101008083540402835291602001916104fc565b820191906000526020600020905b8154815290600101906020018083116104df57829003601f168201915b5050505050905090565b6000610511826110c1565b6004600083815260200190815260200160002060009054906101000a900473ffffffffffffffffffffffffffffffffffffffff169050919050565b6000610557826109e1565b90508073ffffffffffffffffffffffffffffffffffffffff168373ffffffffffffffffffffffffffffffffffffffff16036105c7576040517f08c379a00000000000000000000000000000000000000000000000000000000081526004016105be9061295c565b60405180910390fd5b8073ffffffffffffffffffffffffffffffffffffffff166105e661110c565b73ffffffffffffffffffffffffffffffffffffffff16148061061557506106148161060f61110c565b610f2a565b5b610654576040517f08c379a000000000000000000000000000000000000000000000000000000000815260040161064b906129ee565b60405180910390fd5b61065e8383611114565b505050565b61067461066e61110c565b826111cd565b6106b3576040517f08c379a00000000000000000000000000000000000000000000000000000000081526004016106aa90612a80565b60405180910390fd5b6106be838383611262565b505050565b606060006106f76106d38461155b565b6040516020016106e39190612b28565b604051602081830303815290604052611629565b90506009805490508161070a9190612b79565b9050600981815481106107205761071f612baa565b5b906000526020600020018054610735906128b9565b80601f0160208091040260200160405190810160405280929190818152602001828054610761906128b9565b80156107ae5780601f10610783576101008083540402835291602001916107ae565b820191906000526020600020905b81548152906001019060200180831161079157829003601f168201915b5050505050915050919050565b60006107c7600761165c565b905060006107d4826106c3565b905060006107e183610bc6565b905060006107ee84610d20565b9050600083838360405160200161080793929190612bd9565b6040516020818303038152906040529050600060088260405160200161082e929190612cee565b604051602081830303815290604052905060006108738361084e8461166a565b60405160200161085f929190612e4d565b60405160208183030381529060405261166a565b90506000816040516020016108889190612ede565b60405160208183030381529060405290506108d76040518060400160405280601181526020017f0a2d2d2d2d2d2d2d2d2d2d2d2d2d2d2d2d000000000000000000000000000000815250610fbe565b6108ff816040516020016108eb9190612f72565b604051602081830303815290604052610fbe565b61093d6040518060400160405280601281526020017f2d2d2d2d2d2d2d2d2d2d2d2d2d2d2d2d2d0a0000000000000000000000000000815250610fbe565b6109473389611801565b610951888261181f565b61095b600761188c565b61097e6040518060600160405280602581526020016139f36025913989336118a2565b7f1fe88d82e6b80a1cba38a07bfa0698b5d315dcf161a7150bb057b36b166a1f9b33896040516109af929190612f94565b60405180910390a15050505050505050565b6109dc83838360405180602001604052806000815250610cbe565b505050565b6000806109ed83611941565b9050600073ffffffffffffffffffffffffffffffffffffffff168173ffffffffffffffffffffffffffffffffffffffff1603610a5e576040517f08c379a0000000000000000000000000000000000000000000000000000000008152600401610a5590613009565b60405180910390fd5b80915050919050565b60008073ffffffffffffffffffffffffffffffffffffffff168273ffffffffffffffffffffffffffffffffffffffff1603610ad7576040517f08c379a0000000000000000000000000000000000000000000000000000000008152600401610ace9061309b565b60405180910390fd5b600360008373ffffffffffffffffffffffffffffffffffffffff1673ffffffffffffffffffffffffffffffffffffffff168152602001908152602001600020549050919050565b606060018054610b2d906128b9565b80601f0160208091040260200160405190810160405280929190818152602001828054610b59906128b9565b8015610ba65780601f10610b7b57610100808354040283529160200191610ba6565b820191906000526020600020905b815481529060010190602001808311610b8957829003601f168201915b5050505050905090565b610bc2610bbb61110c565b838361197e565b5050565b60606000610bfa610bd68461155b565b604051602001610be69190613107565b604051602081830303815290604052611629565b9050600a8054905081610c0d9190612b79565b9050600a8181548110610c2357610c22612baa565b5b906000526020600020018054610c38906128b9565b80601f0160208091040260200160405190810160405280929190818152602001828054610c64906128b9565b8015610cb15780601f10610c8657610100808354040283529160200191610cb1565b820191906000526020600020905b815481529060010190602001808311610c9457829003601f168201915b5050505050915050919050565b610ccf610cc961110c565b836111cd565b610d0e576040517f08c379a0000000000000000000000000000000000000000000000000000000008152600401610d0590612a80565b60405180910390fd5b610d1a84848484611aea565b50505050565b60606000610d54610d308461155b565b604051602001610d409190613175565b604051602081830303815290604052611629565b9050600b8054905081610d679190612b79565b9050600b8181548110610d7d57610d7c612baa565b5b906000526020600020018054610d92906128b9565b80601f0160208091040260200160405190810160405280929190818152602001828054610dbe906128b9565b8015610e0b5780601f10610de057610100808354040283529160200191610e0b565b820191906000526020600020905b815481529060010190602001808311610dee57829003601f168201915b5050505050915050919050565b6060610e23826110c1565b6000600660008481526020019081526020016000208054610e43906128b9565b80601f0160208091040260200160405190810160405280929190818152602001828054610e6f906128b9565b8015610ebc5780601f10610e9157610100808354040283529160200191610ebc565b820191906000526020600020905b815481529060010190602001808311610e9f57829003601f168201915b505050505090506000610ecd611b46565b90506000815103610ee2578192505050610f25565b600082511115610f17578082604051602001610eff929190613197565b60405160208183030381529060405292505050610f25565b610f2084611b5d565b925050505b919050565b6000600560008473ffffffffffffffffffffffffffffffffffffffff1673ffffffffffffffffffffffffffffffffffffffff16815260200190815260200160002060008373ffffffffffffffffffffffffffffffffffffffff1673ffffffffffffffffffffffffffffffffffffffff16815260200190815260200160002060009054906101000a900460ff16905092915050565b61105481604051602401610fd2919061242f565b6040516020818303038152906040527f41304fac000000000000000000000000000000000000000000000000000000007bffffffffffffffffffffffffffffffffffffffffffffffffffffffff19166020820180517bffffffffffffffffffffffffffffffffffffffffffffffffffffffff8381831617835250505050611bc5565b50565b60007f01ffc9a7000000000000000000000000000000000000000000000000000000007bffffffffffffffffffffffffffffffffffffffffffffffffffffffff1916827bffffffffffffffffffffffffffffffffffffffffffffffffffffffff1916149050919050565b6110ca81611bee565b611109576040517f08c379a000000000000000000000000000000000000000000000000000000000815260040161110090613009565b60405180910390fd5b50565b600033905090565b816004600083815260200190815260200160002060006101000a81548173ffffffffffffffffffffffffffffffffffffffff021916908373ffffffffffffffffffffffffffffffffffffffff160217905550808273ffffffffffffffffffffffffffffffffffffffff16611187836109e1565b73ffffffffffffffffffffffffffffffffffffffff167f8c5be1e5ebec7d5bd14f71427d1e84f3dd0314c0f7b2291e5b200ac8c7c3b92560405160405180910390a45050565b6000806111d9836109e1565b90508073ffffffffffffffffffffffffffffffffffffffff168473ffffffffffffffffffffffffffffffffffffffff16148061121b575061121a8185610f2a565b5b8061125957508373ffffffffffffffffffffffffffffffffffffffff1661124184610506565b73ffffffffffffffffffffffffffffffffffffffff16145b91505092915050565b8273ffffffffffffffffffffffffffffffffffffffff16611282826109e1565b73ffffffffffffffffffffffffffffffffffffffff16146112d8576040517f08c379a00000000000000000000000000000000000000000000000000000000081526004016112cf9061322d565b60405180910390fd5b600073ffffffffffffffffffffffffffffffffffffffff168273ffffffffffffffffffffffffffffffffffffffff1603611347576040517f08c379a000000000000000000000000000000000000000000000000000000000815260040161133e906132bf565b60405180910390fd5b6113548383836001611c2f565b8273ffffffffffffffffffffffffffffffffffffffff16611374826109e1565b73ffffffffffffffffffffffffffffffffffffffff16146113ca576040517f08c379a00000000000000000000000000000000000000000000000000000000081526004016113c19061322d565b60405180910390fd5b6004600082815260200190815260200160002060006101000a81549073ffffffffffffffffffffffffffffffffffffffff02191690556001600360008573ffffffffffffffffffffffffffffffffffffffff1673ffffffffffffffffffffffffffffffffffffffff168152602001908152602001600020600082825403925050819055506001600360008473ffffffffffffffffffffffffffffffffffffffff1673ffffffffffffffffffffffffffffffffffffffff16815260200190815260200160002060008282540192505081905550816002600083815260200190815260200160002060006101000a81548173ffffffffffffffffffffffffffffffffffffffff021916908373ffffffffffffffffffffffffffffffffffffffff160217905550808273ffffffffffffffffffffffffffffffffffffffff168473ffffffffffffffffffffffffffffffffffffffff167fddf252ad1be2c89b69c2b068fc378daa952ba7f163c4a11628f55a4df523b3ef60405160405180910390a46115568383836001611d55565b505050565b60606000600161156a84611d5b565b01905060008167ffffffffffffffff8111156115895761158861269c565b5b6040519080825280601f01601f1916602001820160405280156115bb5781602001600182028036833780820191505090505b509050600082602001820190505b60011561161e578080600190039150507f3031323334353637383961626364656600000000000000000000000000000000600a86061a8153600a858161161257611611612b4a565b5b049450600085036115c9575b819350505050919050565b60008160405160200161163c91906132df565b6040516020818303038152906040528051906020012060001c9050919050565b600081600001549050919050565b60606000825190506000810361169257604051806020016040528060008152509150506117fc565b600060036002836116a39190613325565b6116ad9190613359565b60046116b9919061338a565b905060006020826116ca9190613325565b67ffffffffffffffff8111156116e3576116e261269c565b5b6040519080825280601f01601f1916602001820160405280156117155781602001600182028036833780820191505090505b5090506000604051806060016040528060408152602001613a18604091399050600181016020830160005b868110156117b95760038101905062ffffff818a015116603f8160121c168401518060081b905060ff603f83600c1c1686015116810190508060081b905060ff603f8360061c1686015116810190508060081b905060ff603f831686015116810190508060e01b90508084526004840193505050611740565b5060038606600181146117d357600281146117e3576117ee565b613d3d60f01b60028303526117ee565b603d60f81b60018303525b508484525050819450505050505b919050565b61181b828260405180602001604052806000815250611eae565b5050565b61182882611bee565b611867576040517f08c379a000000000000000000000000000000000000000000000000000000000815260040161185e9061343e565b60405180910390fd5b8060066000848152602001908152602001600020908161188791906135f5565b505050565b6001816000016000828254019250508190555050565b61193c8383836040516024016118ba939291906136c7565b6040516020818303038152906040527f1c7ec448000000000000000000000000000000000000000000000000000000007bffffffffffffffffffffffffffffffffffffffffffffffffffffffff19166020820180517bffffffffffffffffffffffffffffffffffffffffffffffffffffffff8381831617835250505050611bc5565b505050565b60006002600083815260200190815260200160002060009054906101000a900473ffffffffffffffffffffffffffffffffffffffff169050919050565b8173ffffffffffffffffffffffffffffffffffffffff168373ffffffffffffffffffffffffffffffffffffffff16036119ec576040517f08c379a00000000000000000000000000000000000000000000000000000000081526004016119e390613751565b60405180910390fd5b80600560008573ffffffffffffffffffffffffffffffffffffffff1673ffffffffffffffffffffffffffffffffffffffff16815260200190815260200160002060008473ffffffffffffffffffffffffffffffffffffffff1673ffffffffffffffffffffffffffffffffffffffff16815260200190815260200160002060006101000a81548160ff0219169083151502179055508173ffffffffffffffffffffffffffffffffffffffff168373ffffffffffffffffffffffffffffffffffffffff167f17307eab39ab6107e8899845ad3d59bd9653f200f220920489ca2b5937696c3183604051611add9190612384565b60405180910390a3505050565b611af5848484611262565b611b0184848484611f09565b611b40576040517f08c379a0000000000000000000000000000000000000000000000000000000008152600401611b37906137e3565b60405180910390fd5b50505050565b606060405180602001604052806000815250905090565b6060611b68826110c1565b6000611b72611b46565b90506000815111611b925760405180602001604052806000815250611bbd565b80611b9c8461155b565b604051602001611bad929190613197565b6040516020818303038152906040525b915050919050565b60008151905060006a636f6e736f6c652e6c6f679050602083016000808483855afa5050505050565b60008073ffffffffffffffffffffffffffffffffffffffff16611c1083611941565b73ffffffffffffffffffffffffffffffffffffffff1614159050919050565b6001811115611d4f57600073ffffffffffffffffffffffffffffffffffffffff168473ffffffffffffffffffffffffffffffffffffffff1614611cc35780600360008673ffffffffffffffffffffffffffffffffffffffff1673ffffffffffffffffffffffffffffffffffffffff1681526020019081526020016000206000828254611cbb9190613803565b925050819055505b600073ffffffffffffffffffffffffffffffffffffffff168373ffffffffffffffffffffffffffffffffffffffff1614611d4e5780600360008573ffffffffffffffffffffffffffffffffffffffff1673ffffffffffffffffffffffffffffffffffffffff1681526020019081526020016000206000828254611d469190613325565b925050819055505b5b50505050565b50505050565b600080600090507a184f03e93ff9f4daa797ed6e38ed64bf6a1f0100000000000000008310611db9577a184f03e93ff9f4daa797ed6e38ed64bf6a1f0100000000000000008381611daf57611dae612b4a565b5b0492506040810190505b6d04ee2d6d415b85acef81000000008310611df6576d04ee2d6d415b85acef81000000008381611dec57611deb612b4a565b5b0492506020810190505b662386f26fc100008310611e2557662386f26fc100008381611e1b57611e1a612b4a565b5b0492506010810190505b6305f5e1008310611e4e576305f5e1008381611e4457611e43612b4a565b5b0492506008810190505b6127108310611e73576127108381611e6957611e68612b4a565b5b0492506004810190505b60648310611e965760648381611e8c57611e8b612b4a565b5b0492506002810190505b600a8310611ea5576001810190505b80915050919050565b611eb88383612090565b611ec56000848484611f09565b611f04576040517f08c379a0000000000000000000000000000000000000000000000000000000008152600401611efb906137e3565b60405180910390fd5b505050565b6000611f2a8473ffffffffffffffffffffffffffffffffffffffff166122ad565b15612083578373ffffffffffffffffffffffffffffffffffffffff1663150b7a02611f5361110c565b8786866040518563ffffffff1660e01b8152600401611f75949392919061388c565b6020604051808303816000875af1925050508015611fb157506040513d601f19601f82011682018060405250810190611fae91906138ed565b60015b612033573d8060008114611fe1576040519150601f19603f3d011682016040523d82523d6000602084013e611fe6565b606091505b50600081510361202b576040517f08c379a0000000000000000000000000000000000000000000000000000000008152600401612022906137e3565b60405180910390fd5b805181602001fd5b63150b7a0260e01b7bffffffffffffffffffffffffffffffffffffffffffffffffffffffff1916817bffffffffffffffffffffffffffffffffffffffffffffffffffffffff191614915050612088565b600190505b949350505050565b600073ffffffffffffffffffffffffffffffffffffffff168273ffffffffffffffffffffffffffffffffffffffff16036120ff576040517f08c379a00000000000000000000000000000000000000000000000000000000081526004016120f690613966565b60405180910390fd5b61210881611bee565b15612148576040517f08c379a000000000000000000000000000000000000000000000000000000000815260040161213f906139d2565b60405180910390fd5b612156600083836001611c2f565b61215f81611bee565b1561219f576040517f08c379a0000000000000000000000000000000000000000000000000000000008152600401612196906139d2565b60405180910390fd5b6001600360008473ffffffffffffffffffffffffffffffffffffffff1673ffffffffffffffffffffffffffffffffffffffff16815260200190815260200160002060008282540192505081905550816002600083815260200190815260200160002060006101000a81548173ffffffffffffffffffffffffffffffffffffffff021916908373ffffffffffffffffffffffffffffffffffffffff160217905550808273ffffffffffffffffffffffffffffffffffffffff16600073ffffffffffffffffffffffffffffffffffffffff167fddf252ad1be2c89b69c2b068fc378daa952ba7f163c4a11628f55a4df523b3ef60405160405180910390a46122a9600083836001611d55565b5050565b6000808273ffffffffffffffffffffffffffffffffffffffff163b119050919050565b6000604051905090565b600080fd5b600080fd5b60007fffffffff0000000000000000000000000000000000000000000000000000000082169050919050565b612319816122e4565b811461232457600080fd5b50565b60008135905061233681612310565b92915050565b600060208284031215612352576123516122da565b5b600061236084828501612327565b91505092915050565b60008115159050919050565b61237e81612369565b82525050565b60006020820190506123996000830184612375565b92915050565b600081519050919050565b600082825260208201905092915050565b60005b838110156123d95780820151818401526020810190506123be565b60008484015250505050565b6000601f19601f8301169050919050565b60006124018261239f565b61240b81856123aa565b935061241b8185602086016123bb565b612424816123e5565b840191505092915050565b6000602082019050818103600083015261244981846123f6565b905092915050565b6000819050919050565b61246481612451565b811461246f57600080fd5b50565b6000813590506124818161245b565b92915050565b60006020828403121561249d5761249c6122da565b5b60006124ab84828501612472565b91505092915050565b600073ffffffffffffffffffffffffffffffffffffffff82169050919050565b60006124df826124b4565b9050919050565b6124ef816124d4565b82525050565b600060208201905061250a60008301846124e6565b92915050565b612519816124d4565b811461252457600080fd5b50565b60008135905061253681612510565b92915050565b60008060408385031215612553576125526122da565b5b600061256185828601612527565b925050602061257285828601612472565b9150509250929050565b600080600060608486031215612595576125946122da565b5b60006125a386828701612527565b93505060206125b486828701612527565b92505060406125c586828701612472565b9150509250925092565b6000602082840312156125e5576125e46122da565b5b60006125f384828501612527565b91505092915050565b61260581612451565b82525050565b600060208201905061262060008301846125fc565b92915050565b61262f81612369565b811461263a57600080fd5b50565b60008135905061264c81612626565b92915050565b60008060408385031215612669576126686122da565b5b600061267785828601612527565b92505060206126888582860161263d565b9150509250929050565b600080fd5b600080fd5b7f4e487b7100000000000000000000000000000000000000000000000000000000600052604160045260246000fd5b6126d4826123e5565b810181811067ffffffffffffffff821117156126f3576126f261269c565b5b80604052505050565b60006127066122d0565b905061271282826126cb565b919050565b600067ffffffffffffffff8211156127325761273161269c565b5b61273b826123e5565b9050602081019050919050565b82818337600083830152505050565b600061276a61276584612717565b6126fc565b90508281526020810184848401111561278657612785612697565b5b612791848285612748565b509392505050565b600082601f8301126127ae576127ad612692565b5b81356127be848260208601612757565b91505092915050565b600080600080608085870312156127e1576127e06122da565b5b60006127ef87828801612527565b945050602061280087828801612527565b935050604061281187828801612472565b925050606085013567ffffffffffffffff811115612832576128316122df565b5b61283e87828801612799565b91505092959194509250565b60008060408385031215612861576128606122da565b5b600061286f85828601612527565b925050602061288085828601612527565b9150509250929050565b7f4e487b7100000000000000000000000000000000000000000000000000000000600052602260045260246000fd5b600060028204905060018216806128d157607f821691505b6020821081036128e4576128e361288a565b5b50919050565b7f4552433732313a20617070726f76616c20746f2063757272656e74206f776e6560008201527f7200000000000000000000000000000000000000000000000000000000000000602082015250565b60006129466021836123aa565b9150612951826128ea565b604082019050919050565b6000602082019050818103600083015261297581612939565b9050919050565b7f4552433732313a20617070726f76652063616c6c6572206973206e6f7420746f60008201527f6b656e206f776e6572206f7220617070726f76656420666f7220616c6c000000602082015250565b60006129d8603d836123aa565b91506129e38261297c565b604082019050919050565b60006020820190508181036000830152612a07816129cb565b9050919050565b7f4552433732313a2063616c6c6572206973206e6f7420746f6b656e206f776e6560008201527f72206f7220617070726f76656400000000000000000000000000000000000000602082015250565b6000612a6a602d836123aa565b9150612a7582612a0e565b604082019050919050565b60006020820190508181036000830152612a9981612a5d565b9050919050565b600081905092915050565b7f46495253545f574f524400000000000000000000000000000000000000000000600082015250565b6000612ae1600a83612aa0565b9150612aec82612aab565b600a82019050919050565b6000612b028261239f565b612b0c8185612aa0565b9350612b1c8185602086016123bb565b80840191505092915050565b6000612b3382612ad4565b9150612b3f8284612af7565b915081905092915050565b7f4e487b7100000000000000000000000000000000000000000000000000000000600052601260045260246000fd5b6000612b8482612451565b9150612b8f83612451565b925082612b9f57612b9e612b4a565b5b828206905092915050565b7f4e487b7100000000000000000000000000000000000000000000000000000000600052603260045260246000fd5b6000612be58286612af7565b9150612bf18285612af7565b9150612bfd8284612af7565b9150819050949350505050565b60008190508160005260206000209050919050565b60008154612c2c816128b9565b612c368186612aa0565b94506001821660008114612c515760018114612c6657612c99565b60ff1983168652811515820286019350612c99565b612c6f85612c0a565b60005b83811015612c9157815481890152600182019150602081019050612c72565b838801955050505b50505092915050565b7f3c2f746578743e3c2f7376673e00000000000000000000000000000000000000600082015250565b6000612cd8600d83612aa0565b9150612ce382612ca2565b600d82019050919050565b6000612cfa8285612c1f565b9150612d068284612af7565b9150612d1182612ccb565b91508190509392505050565b7f7b226e616d65223a202200000000000000000000000000000000000000000000600082015250565b6000612d53600a83612aa0565b9150612d5e82612d1d565b600a82019050919050565b7f222c20226465736372697074696f6e223a202252616e646f6d6c792067656e6560008201527f7261746564206e616d65732066726f6d20416e696d652e222c2022696d61676560208201527f223a2022646174613a696d6167652f7376672b786d6c3b6261736536342c0000604082015250565b6000612deb605e83612aa0565b9150612df682612d69565b605e82019050919050565b7f227d000000000000000000000000000000000000000000000000000000000000600082015250565b6000612e37600283612aa0565b9150612e4282612e01565b600282019050919050565b6000612e5882612d46565b9150612e648285612af7565b9150612e6f82612dde565b9150612e7b8284612af7565b9150612e8682612e2a565b91508190509392505050565b7f646174613a6170706c69636174696f6e2f6a736f6e3b6261736536342c000000600082015250565b6000612ec8601d83612aa0565b9150612ed382612e92565b601d82019050919050565b6000612ee982612ebb565b9150612ef58284612af7565b915081905092915050565b7f68747470733a2f2f6e6674707265766965772e30786465762e636f6465732f3f60008201527f636f64653d000000000000000000000000000000000000000000000000000000602082015250565b6000612f5c602583612aa0565b9150612f6782612f00565b602582019050919050565b6000612f7d82612f4f565b9150612f898284612af7565b915081905092915050565b6000604082019050612fa960008301856124e6565b612fb660208301846125fc565b9392505050565b7f4552433732313a20696e76616c696420746f6b656e2049440000000000000000600082015250565b6000612ff36018836123aa565b9150612ffe82612fbd565b602082019050919050565b6000602082019050818103600083015261302281612fe6565b9050919050565b7f4552433732313a2061646472657373207a65726f206973206e6f74206120766160008201527f6c6964206f776e65720000000000000000000000000000000000000000000000602082015250565b60006130856029836123aa565b915061309082613029565b604082019050919050565b600060208201905081810360008301526130b481613078565b9050919050565b7f5345434f4e445f574f5244000000000000000000000000000000000000000000600082015250565b60006130f1600b83612aa0565b91506130fc826130bb565b600b82019050919050565b6000613112826130e4565b915061311e8284612af7565b915081905092915050565b7f54484952445f574f524400000000000000000000000000000000000000000000600082015250565b600061315f600a83612aa0565b915061316a82613129565b600a82019050919050565b600061318082613152565b915061318c8284612af7565b915081905092915050565b60006131a38285612af7565b91506131af8284612af7565b91508190509392505050565b7f4552433732313a207472616e736665722066726f6d20696e636f72726563742060008201527f6f776e6572000000000000000000000000000000000000000000000000000000602082015250565b60006132176025836123aa565b9150613222826131bb565b604082019050919050565b600060208201905081810360008301526132468161320a565b9050919050565b7f4552433732313a207472616e7366657220746f20746865207a65726f2061646460008201527f7265737300000000000000000000000000000000000000000000000000000000602082015250565b60006132a96024836123aa565b91506132b48261324d565b604082019050919050565b600060208201905081810360008301526132d88161329c565b9050919050565b60006132eb8284612af7565b915081905092915050565b7f4e487b7100000000000000000000000000000000000000000000000000000000600052601160045260246000fd5b600061333082612451565b915061333b83612451565b9250828201905080821115613353576133526132f6565b5b92915050565b600061336482612451565b915061336f83612451565b92508261337f5761337e612b4a565b5b828204905092915050565b600061339582612451565b91506133a083612451565b92508282026133ae81612451565b915082820484148315176133c5576133c46132f6565b5b5092915050565b7f45524337323155524953746f726167653a2055524920736574206f66206e6f6e60008201527f6578697374656e7420746f6b656e000000000000000000000000000000000000602082015250565b6000613428602e836123aa565b9150613433826133cc565b604082019050919050565b600060208201905081810360008301526134578161341b565b9050919050565b60006020601f8301049050919050565b600082821b905092915050565b6000600883026134ab7fffffffffffffffffffffffffffffffffffffffffffffffffffffffffffffffff8261346e565b6134b5868361346e565b95508019841693508086168417925050509392505050565b6000819050919050565b60006134f26134ed6134e884612451565b6134cd565b612451565b9050919050565b6000819050919050565b61350c836134d7565b613520613518826134f9565b84845461347b565b825550505050565b600090565b613535613528565b613540818484613503565b505050565b5b818110156135645761355960008261352d565b600181019050613546565b5050565b601f8211156135a95761357a81612c0a565b6135838461345e565b81016020851015613592578190505b6135a661359e8561345e565b830182613545565b50505b505050565b600082821c905092915050565b60006135cc600019846008026135ae565b1980831691505092915050565b60006135e583836135bb565b9150826002028217905092915050565b6135fe8261239f565b67ffffffffffffffff8111156136175761361661269c565b5b61362182546128b9565b61362c828285613568565b600060209050601f83116001811461365f576000841561364d578287015190505b61365785826135d9565b8655506136bf565b601f19841661366d86612c0a565b60005b8281101561369557848901518255600182019150602085019450602081019050613670565b868310156136b257848901516136ae601f8916826135bb565b8355505b6001600288020188555050505b505050505050565b600060608201905081810360008301526136e181866123f6565b90506136f060208301856125fc565b6136fd60408301846124e6565b949350505050565b7f4552433732313a20617070726f766520746f2063616c6c657200000000000000600082015250565b600061373b6019836123aa565b915061374682613705565b602082019050919050565b6000602082019050818103600083015261376a8161372e565b9050919050565b7f4552433732313a207472616e7366657220746f206e6f6e20455243373231526560008201527f63656976657220696d706c656d656e7465720000000000000000000000000000602082015250565b60006137cd6032836123aa565b91506137d882613771565b604082019050919050565b600060208201905081810360008301526137fc816137c0565b9050919050565b600061380e82612451565b915061381983612451565b9250828203905081811115613831576138306132f6565b5b92915050565b600081519050919050565b600082825260208201905092915050565b600061385e82613837565b6138688185613842565b93506138788185602086016123bb565b613881816123e5565b840191505092915050565b60006080820190506138a160008301876124e6565b6138ae60208301866124e6565b6138bb60408301856125fc565b81810360608301526138cd8184613853565b905095945050505050565b6000815190506138e781612310565b92915050565b600060208284031215613903576139026122da565b5b6000613911848285016138d8565b91505092915050565b7f4552433732313a206d696e7420746f20746865207a65726f2061646472657373600082015250565b60006139506020836123aa565b915061395b8261391a565b602082019050919050565b6000602082019050818103600083015261397f81613943565b9050919050565b7f4552433732313a20746f6b656e20616c7265616479206d696e74656400000000600082015250565b60006139bc601c836123aa565b91506139c782613986565b602082019050919050565b600060208201905081810360008301526139eb816139af565b905091905056fe416e204e465420772f20494420257320686173206265656e206d696e74656420746f2025734142434445464748494a4b4c4d4e4f505152535455565758595a6162636465666768696a6b6c6d6e6f707172737475767778797a303132333435363738392b2fa264697066735822122063288d0ea6e591a379ed96b2018141a91a0a661ec681a19d7a978c0a8a06967f64736f6c634300081100333c73766720786d6c6e733d27687474703a2f2f7777772e77332e6f72672f323030302f73766727207072657365727665417370656374526174696f3d27784d696e594d696e206d656574272076696577426f783d273020302033353020333530273e3c7374796c653e2e62617365207b2066696c6c3a2077686974653b20666f6e742d66616d696c793a2073657269663b20666f6e742d73697a653a20323470783b207d3c2f7374796c653e3c726563742077696474683d273130302527206865696768743d2731303025272066696c6c3d27626c61636b27202f3e3c7465787420783d273530252720793d273530252720636c6173733d27626173652720646f6d696e616e742d626173656c696e653d276d6964646c652720746578742d616e63686f723d276d6964646c65273e",
  "linkReferences": {},
  "deployedLinkReferences": {}
}